{
  "_format": "hh-sol-artifact-1",
  "contractName": "MiniLottery",
  "sourceName": "contracts/MiniLottery.sol",
  "abi": [
    {
      "inputs": [],
      "stateMutability": "nonpayable",
      "type": "constructor"
    },
    {
      "inputs": [],
      "name": "ammount",
      "outputs": [
        {
          "internalType": "uint256",
          "name": "",
          "type": "uint256"
        }
      ],
      "stateMutability": "view",
      "type": "function"
    },
    {
      "inputs": [],
      "name": "enter",
      "outputs": [],
      "stateMutability": "payable",
      "type": "function"
    },
    {
      "inputs": [],
      "name": "getGiocatori",
      "outputs": [
        {
          "internalType": "address payable[]",
          "name": "",
          "type": "address[]"
        }
      ],
      "stateMutability": "view",
      "type": "function"
    },
    {
      "inputs": [
        {
          "internalType": "uint256",
          "name": "numeroLotteria",
          "type": "uint256"
        }
      ],
      "name": "getUltimoVincitore",
      "outputs": [
        {
          "internalType": "address",
          "name": "",
          "type": "address"
        }
      ],
      "stateMutability": "view",
      "type": "function"
    },
    {
      "inputs": [
        {
          "internalType": "uint256",
          "name": "",
          "type": "uint256"
        }
      ],
      "name": "giocatoriz",
      "outputs": [
        {
          "internalType": "address payable",
          "name": "",
          "type": "address"
        }
      ],
      "stateMutability": "view",
      "type": "function"
    },
    {
      "inputs": [],
      "name": "owner",
      "outputs": [
        {
          "internalType": "address",
          "name": "",
          "type": "address"
        }
      ],
      "stateMutability": "view",
      "type": "function"
    },
    {
      "inputs": [],
      "name": "randomNumber",
      "outputs": [
        {
          "internalType": "uint256",
          "name": "",
          "type": "uint256"
        }
      ],
      "stateMutability": "view",
      "type": "function"
    },
    {
      "inputs": [
        {
          "internalType": "uint256",
          "name": "minimo",
          "type": "uint256"
        }
      ],
      "name": "setMinimEnter",
      "outputs": [
        {
          "internalType": "bool",
          "name": "",
          "type": "bool"
        }
      ],
      "stateMutability": "view",
      "type": "function"
    },
    {
      "inputs": [
        {
          "internalType": "uint256",
          "name": "",
          "type": "uint256"
        }
      ],
      "name": "storicoGiocatoriz",
      "outputs": [
        {
          "internalType": "address payable",
          "name": "",
          "type": "address"
        }
      ],
      "stateMutability": "view",
      "type": "function"
    },
    {
      "inputs": [],
      "name": "vincitori",
      "outputs": [],
      "stateMutability": "nonpayable",
      "type": "function"
    }
  ],
  "bytecode": "0x60806040526001600355662386f26fc1000060055534801561002057600080fd5b50336000806101000a81548173ffffffffffffffffffffffffffffffffffffffff021916908373ffffffffffffffffffffffffffffffffffffffff160217905550610f17806100706000396000f3fe6080604052600436106100915760003560e01c8063b8e056c411610059578063b8e056c414610191578063ccbac9f5146101a8578063e5b14cd3146101d3578063e5e80c4614610210578063e97dcb621461024d57610091565b806315725f7e1461009657806320bc06f1146100d35780635b889ab8146100fe578063813363c8146101295780638da5cb5b14610166575b600080fd5b3480156100a257600080fd5b506100bd60048036038101906100b891906108ab565b610257565b6040516100ca91906108f3565b60405180910390f35b3480156100df57600080fd5b506100e8610267565b6040516100f591906109fe565b60405180910390f35b34801561010a57600080fd5b506101136102f5565b6040516101209190610a2f565b60405180910390f35b34801561013557600080fd5b50610150600480360381019061014b91906108ab565b6102fd565b60405161015d9190610a59565b60405180910390f35b34801561017257600080fd5b5061017b610330565b6040516101889190610a95565b60405180910390f35b34801561019d57600080fd5b506101a6610354565b005b3480156101b457600080fd5b506101bd6105b8565b6040516101ca9190610a2f565b60405180910390f35b3480156101df57600080fd5b506101fa60048036038101906101f591906108ab565b610646565b6040516102079190610a95565b60405180910390f35b34801561021c57600080fd5b50610237600480360381019061023291906108ab565b6106c7565b6040516102449190610a59565b60405180910390f35b610255610706565b005b6000600554915060019050919050565b606060018054806020026020016040519081016040528092919081815260200182805480156102eb57602002820191906000526020600020905b8160009054906101000a900473ffffffffffffffffffffffffffffffffffffffff1673ffffffffffffffffffffffffffffffffffffffff16815260200190600101908083116102a1575b5050505050905090565b600047905090565b60026020528060005260406000206000915054906101000a900473ffffffffffffffffffffffffffffffffffffffff1681565b60008054906101000a900473ffffffffffffffffffffffffffffffffffffffff1681565b3373ffffffffffffffffffffffffffffffffffffffff1660008054906101000a900473ffffffffffffffffffffffffffffffffffffffff1673ffffffffffffffffffffffffffffffffffffffff16146103ac57600080fd5b6000600180549050116103f4576040517f08c379a00000000000000000000000000000000000000000000000000000000081526004016103eb90610b0d565b60405180910390fd5b60006001805490506104046105b8565b61040e9190610b5c565b90506001818154811061042457610423610b8d565b5b9060005260206000200160009054906101000a900473ffffffffffffffffffffffffffffffffffffffff1660026000600354815260200190815260200160002060006101000a81548173ffffffffffffffffffffffffffffffffffffffff021916908373ffffffffffffffffffffffffffffffffffffffff1602179055506000600182815481106104b8576104b7610b8d565b5b9060005260206000200160009054906101000a900473ffffffffffffffffffffffffffffffffffffffff1690506000600454905060006004819055508173ffffffffffffffffffffffffffffffffffffffff166108fc829081150290604051600060405180830381858888f1935050505015801561053a573d6000803e3d6000fd5b506003600081548092919061054e90610beb565b9190505550600067ffffffffffffffff81111561056e5761056d610c34565b5b60405190808252806020026020018201604052801561059c5781602001602082028036833780820191505090505b50600190805190602001906105b29291906107c9565b50505050565b600080600180549050116105cb57600080fd5b60008060009054906101000a900473ffffffffffffffffffffffffffffffffffffffff166001436105fc9190610c63565b40415a45604051602001610614959493929190610d54565b6040516020818303038152906040528051906020012090506001805490508160001c6106409190610b5c565b91505090565b6000600354821061068c576040517f08c379a000000000000000000000000000000000000000000000000000000000815260040161068390610dff565b60405180910390fd5b6002600083815260200190815260200160002060009054906101000a900473ffffffffffffffffffffffffffffffffffffffff169050919050565b600181815481106106d757600080fd5b906000526020600020016000915054906101000a900473ffffffffffffffffffffffffffffffffffffffff1681565b60055434101561074b576040517f08c379a000000000000000000000000000000000000000000000000000000000815260040161074290610e6b565b60405180910390fd5b6001339080600181540180825580915050600190039060005260206000200160009091909190916101000a81548173ffffffffffffffffffffffffffffffffffffffff021916908373ffffffffffffffffffffffffffffffffffffffff16021790555034600460008282546107c09190610e8b565b92505081905550565b828054828255906000526020600020908101928215610842579160200282015b828111156108415782518260006101000a81548173ffffffffffffffffffffffffffffffffffffffff021916908373ffffffffffffffffffffffffffffffffffffffff160217905550916020019190600101906107e9565b5b50905061084f9190610853565b5090565b5b8082111561086c576000816000905550600101610854565b5090565b600080fd5b6000819050919050565b61088881610875565b811461089357600080fd5b50565b6000813590506108a58161087f565b92915050565b6000602082840312156108c1576108c0610870565b5b60006108cf84828501610896565b91505092915050565b60008115159050919050565b6108ed816108d8565b82525050565b600060208201905061090860008301846108e4565b92915050565b600081519050919050565b600082825260208201905092915050565b6000819050602082019050919050565b600073ffffffffffffffffffffffffffffffffffffffff82169050919050565b60006109658261093a565b9050919050565b6109758161095a565b82525050565b6000610987838361096c565b60208301905092915050565b6000602082019050919050565b60006109ab8261090e565b6109b58185610919565b93506109c08361092a565b8060005b838110156109f15781516109d8888261097b565b97506109e383610993565b9250506001810190506109c4565b5085935050505092915050565b60006020820190508181036000830152610a1881846109a0565b905092915050565b610a2981610875565b82525050565b6000602082019050610a446000830184610a20565b92915050565b610a538161095a565b82525050565b6000602082019050610a6e6000830184610a4a565b92915050565b6000610a7f8261093a565b9050919050565b610a8f81610a74565b82525050565b6000602082019050610aaa6000830184610a86565b92915050565b600082825260208201905092915050565b7f4e657373756e2067696f6361746f726520686120706172746563697061746f00600082015250565b6000610af7601f83610ab0565b9150610b0282610ac1565b602082019050919050565b60006020820190508181036000830152610b2681610aea565b9050919050565b7f4e487b7100000000000000000000000000000000000000000000000000000000600052601260045260246000fd5b6000610b6782610875565b9150610b7283610875565b925082610b8257610b81610b2d565b5b828206905092915050565b7f4e487b7100000000000000000000000000000000000000000000000000000000600052603260045260246000fd5b7f4e487b7100000000000000000000000000000000000000000000000000000000600052601160045260246000fd5b6000610bf682610875565b91507fffffffffffffffffffffffffffffffffffffffffffffffffffffffffffffffff821415610c2957610c28610bbc565b5b600182019050919050565b7f4e487b7100000000000000000000000000000000000000000000000000000000600052604160045260246000fd5b6000610c6e82610875565b9150610c7983610875565b925082821015610c8c57610c8b610bbc565b5b828203905092915050565b60008160601b9050919050565b6000610caf82610c97565b9050919050565b6000610cc182610ca4565b9050919050565b610cd9610cd482610a74565b610cb6565b82525050565b6000819050919050565b6000819050919050565b610d04610cff82610cdf565b610ce9565b82525050565b6000610d1582610ca4565b9050919050565b610d2d610d288261095a565b610d0a565b82525050565b6000819050919050565b610d4e610d4982610875565b610d33565b82525050565b6000610d608288610cc8565b601482019150610d708287610cf3565b602082019150610d808286610d1c565b601482019150610d908285610d3d565b602082019150610da08284610d3d565b6020820191508190509695505050505050565b7f4e756d65726f20696e76616c69646f0000000000000000000000000000000000600082015250565b6000610de9600f83610ab0565b9150610df482610db3565b602082019050919050565b60006020820190508181036000830152610e1881610ddc565b9050919050565b7f44656e61726f20696e737566666963656e746520616d69676f00000000000000600082015250565b6000610e55601983610ab0565b9150610e6082610e1f565b602082019050919050565b60006020820190508181036000830152610e8481610e48565b9050919050565b6000610e9682610875565b9150610ea183610875565b9250827fffffffffffffffffffffffffffffffffffffffffffffffffffffffffffffffff03821115610ed657610ed5610bbc565b5b82820190509291505056fea26469706673582212203cf0da2041c23f2ca1ed3f3e25847f82e9c0a6e695c232fd8044c8c88319f5a964736f6c634300080b0033",
  "linkReferences": {},
  "deployedLinkReferences": {}
}